:020000040800F2
:10000000F806002061020008111400080914000815
:100010000D14000859040008351500080000000000
:10002000000000000000000000000000191400089B
:100030005D04000800000000151400081D140008ED
:100040007B0200087B0200087B0200087B0200089C
:100050007B0200087B0200087B0200087B0200088C
:100060007B0200087B0200087B0200087B0200087C
:100070007B0200087B0200087B0200087B0200086C
:100080007B0200087B0200087B02000800000000E1
:100090000000000000000000000000007B020008DB
:1000A0007B0200087B0200087B0200087B0200083C
:1000B0007B0200087B0200087B0200087B0200082C
:1000C0007B0200087B0200087B0200087B0200081C
:1000D0007B0200087B0200087B0200080000000091
:1000E0007B0200087B0200087B0200080000000081
:1000F0000000000000000000000000007B0200087B
:10010000000000007B0200087B0200087B02000860
:1001100000000000000000000000000000000000DF
:100120007B0200087B0200087B0200087B020008BB
:100130007B0200080000000000000000000000003A
:100140000000000000000000000000007B0200082A
:100150007B0200087B0200087B0200087B0200088B
:100160007B0200087B020008000000000000000085
:10017000000000000000000000000000000000007F
:10018000000000007B0200080000000000000000EA
:100190007B02000800F002F800F052F814A696E87E
:1001A000000CB244B344DA4501D100F049F8BAE892
:1001B0000F000FA696E83000A5EB040504EB060738
:1001C000AAEB0704A7F101074FEA15154FEA34140B
:1001D000A4F10104AC4201D300F032F813F0010F96
:1001E00018BFFB1A43F0010300F001F8DBE71847E2
:1001F000E817000008180000103A24BF78C878C13A
:10020000FAD8520724BF30C830C144BF04680C601C
:1002100070470000704700000023002400250026DE
:10022000103A28BF78C1FBD8520728BF30C148BF59
:100230000B6070471FB501F0B9FB1FBD10B510BDB5
:1002400000F0D0F81146FFF7F5FF01F087FA00F053
:10025000EEF803B4FFF7F2FF03BC00F0F5F800007E
:100260000948804709480047FEE7FEE7FEE7FEE74A
:10027000FEE7FEE7FEE7FEE7FEE7FEE70448054986
:10028000054A064B7047000021140008950100083C
:10029000F8000020F8060020F8020020F8020020F4
:1002A00053EA020C00F069802DE9F04B4FF0000694
:1002B000002B1FBFB3FA83F503FA05F424FA05F601
:1002C0005E4012BF1643B2FA82F502FA05F4C5F198
:1002D00020051EBF22FA05FC44EA0C04203556EA2C
:1002E000044C4FEA144418BF641C4FF000084FF050
:1002F0000009904271EB030C39D3002919BFB1FA00
:1003000081F701FA07F6B0FA80F700FA07F6C7F1AD
:1003100020071EBF20FA07FC46EA0C062037B6FB72
:10032000F4FCA7EB0507103F07F01F0BCBF12006ED
:100330002CFA06F60CFA0BFB44BFB3460026202F1E
:10034000A4BF5E464FF0000B5BEA060C08BF4FF0FF
:10035000010B19EB0B0948EB0608ABFB027C06FB13
:1003600002CC0BFB03CCC01B71EB0C01C1E70B46AD
:10037000024641464846BDE8F08B13B5084318BF16
:100380004FF0FF300146AFF30080BDE81C407047DE
:100390004FF0000200B5134694469646203922BF1E
:1003A000A0E80C50A0E80C50B1F12001BFF4F7AF69
:1003B000090728BFA0E80C5048BF0CC05DF804EB4B
:1003C000890028BF40F8042B08BF704748BF20F8B9
:1003D000022B11F0804F18BF00F8012B70477047B7
:1003E00070477047754600F02BF8AE460500694629
:1003F000534620F00700854618B020B5FFF73EFFB2
:10040000BDE820404FF000064FF000074FF0000815
:100410004FF0000BAC46ACE8C009ACE8C009ACE852
:10042000C009ACE8C00921F007018D46704710B53E
:100430000446AFF300802046BDE81040FFF709BF37
:10044000004870473800002001491820ABBEFEE785
:100450002600020070470000FEE700007047000021
:10046000B0B5044600F0F4F8054640F22800C2F2A8
:1004700000000078611C18BF044400BF00F0E8F8D9
:10048000401BA042FAD3B0BD2DE9F04F83B000F17C
:10049000200200F13E4741F20005009207F1FF778C
:1004A000C4F2020507224FEAB726A84208BF042279
:1004B00000254FF000084FF00009042E38BF4FEA26
:1004C000B72201920AE000BF09F1010908F1020810
:1004D000B9F1100F05F1040500F0A2800F680122A8
:1004E00002FA09FE17EA0E0AEED0D1F804C0032280
:1004F0000CF003077E1E02FA08F4012E6FEA040BCB
:1005000012D88468CE6804EA0B0406FA08F634436D
:100510008460446824EA0E06CCF3001404FA09F45B
:100520002643466004E000BF032F01D103271EE0ED
:10053000C6688C6806EA0B0604FA08F42643022F04
:10054000C66014D16FF00302009E02EA590756F804
:1005500007C005F01C040F220B69A2402CEA02021E
:10056000A3401A43F251D1F804C00CF0030702680B
:1005700007FA08F302EA0B021A431CF4403F026038
:10058000A2D0002243F644030292C4F202031A6886
:1005900043F6004442F480421A601A68C4F201042F
:1005A00002F480420292029A29F003024FF6084CAC
:1005B0002244CFF6FF7C52F80C3005F00C070F26D2
:1005C000BE40B343019E06FA07F73B4342F80C30A6
:1005D000A2684B6842EA0A0743F60C4CDE0258BF99
:1005E00022EA0A07A760C4F2010CDCF800209E0290
:1005F00042EA0A0758BF22EA0A07CCF8007062688C
:100600009E0342EA0A0758BF22EA0A076760226887
:10061000DB0342EA0A0758BF22EA0A07276053E7CA
:1006200003B0BDE8F08F00000069084018BF01204A
:1006300070470000426902EA0103914341EA034125
:1006400081617047002A08BF09048161704700007A
:1006500040F2F400C2F200000068704740F2280047
:1006600040F2F401C2F20000C2F2000100780A6810
:10067000104408607047000080B543F60040C4F2A3
:100680000200016841F400710160016841F4806179
:100690000160016841F480710160032000F074F88A
:1006A0000F2000F005F800F027F8002080BD0000C2
:1006B00070B540F22806C2F2000640F230013278EE
:1006C000C2F200014FF47A730968B3FBF2F20446F8
:1006D000B1FBF2F1084600F025FB0F2C4FF00105AD
:1006E00008D838B94FF0FF3021460022002500F02D
:1006F0001FF87460284670BD82B0002043F64001A8
:100700000190C4F202014A6842F480424A604A6899
:1007100002F480420192019A0090086840F08050F3
:100720000860086800F080500090009802B07047A0
:1007300010B54EF60C5CCEF2000CDCF80030C3F3C2
:10074000022E8EF00704042C28BF0424BEF10303FC
:100750004FF0FF3E0EFA04F438BF0023A143994046
:100760000EFA03F39A43114300F00F0200F16043C5
:100770000901043A03F564436244002848BF02F1CA
:100780000C03197010BD00004EF60C51CEF20001A2
:100790000A684FF6FF031A4060F30A2242F08060B5
:1007A00040F0FD7008607047002804BF01207047CA
:1007B0002DE9F04143F60808C4F202080446D8F8CF
:1007C000F8030D4600F00700884207D288F8F85376
:1007D000D8F8F80300F00700A84277D12068810715
:1007E00017D5410705D5D8F8001041F4E051C8F8F5
:1007F0000010010705D5D8F8001041F46041C8F891
:100800000010D8F80010A26821F0F0011143C8F8D8
:100810000010C00740D1D8F8F80300F00700A84244
:1008200007D988F8F853D8F8F80300F00700A84271
:100830004CD12068410707D5D8F80010E26821F4B0
:10084000E0511143C8F80010000708D5D8F800009F
:10085000216920F4604040EAC100C8F8000000F0BF
:1008600055F8D8F8001041F6C612C1F30311C0F6CE
:100870000002515C40F2300220FA01F140F22C00FB
:10088000C2F200000068C2F200021160FFF710FF20
:100890000020BDE8F08100BF6068811E022907D2F8
:1008A00058F8081C89015CBF0120BDE8F08111E007
:1008B000012807D158F8081C89035CBF0120BDE856
:1008C000F08107E058F8081C890703D40120BDE82F
:1008D000F08100BFD8F8001021F003010843C8F8E8
:1008E0000000FFF7B5FE064641F28837D8F8000051
:1008F000616800F00C00B0EB810F8CD0FFF7A8FE10
:10090000801BB842F2D90320BDE8F08110B543F650
:100910000404C4F20204606800F00C0008280BD044
:10092000042819BF42F20040C0F2F40047F640002C
:10093000C0F27D1010BD00BF206821682368490205
:1009400047F64001C0F27D1100F03F02C3F388106A
:100950005CBF42F20041C0F2F401A1FB00010023A0
:10096000FFF79EFC21680222C1F3014102EB410125
:10097000B0FBF1F010BD0000002804BF012070475B
:100980002DE9F04182B00446007843F60006C00726
:10099000C4F202060CD0B06800F00C00042840F04D
:1009A00081803068800303D56068002800F068818A
:1009B000207880071BD5B06810F00C0F09D0B06804
:1009C00000F00C00082840F087807068400200F1B9
:1009D00083803068800703D5E068012840F05081AB
:1009E0003068216920F0F80040EAC10030602078CA
:1009F000000713D4207840072AD4A569002D00F001
:100A00003A81B06800F00C00082840F0A580012D64
:100A100040F00E81012002B0BDE8F081606900283D
:100A200000F082800020C4F247200121C0F8801E1F
:100A3000FFF70EFE054600BF706F8007DAD4FFF7A0
:100A400007FE401B0228F7D9032002B0BDE8F08161
:100A5000306C5FEAC0080AD400200190306C40F08E
:100A600080503064306C00F080500190019847F263
:100A70000007C4F200073868C00547D4386840F45E
:100A800080703860FFF7E4FD054600BF3868C00598
:100A90003CD4FFF7DDFD401B0228F7D9032002B04C
:100AA000BDE8F081B06800F00C00082803D1706840
:100AB00040023FF576AF61683068B1F5803F07D0FE
:100AC000B1F5A02F40F09A8040F48020306030686B
:100AD00040F4803030609AE0E068002840F2000086
:100AE000C4F247205CD001210160FFF7B1FD05464B
:100AF000306880073FF574AFFFF7AAFD401B02285E
:100B0000F6D9032002B0BDE8F08100BFA168306FC4
:100B1000012905D0052955D140F004003067306F18
:100B200040F00100306756E00020C4F24720002169
:100B3000C0F8801EFFF78CFD054600BF706F800770
:100B40007FF558AFFFF784FD401B0228F6D903203C
:100B500002B0BDE8F08100BF0027C4F247270020A3
:100B60003866FFF775FD022D05460DD1306880010E
:100B700040F18A80FFF76CFD401B02284FF0030014
:100B8000F4D902B0BDE8F0813068800173D5FFF779
:100B90005FFD401B02284FF00300F5D9F1E700BFCD
:100BA00000210160FFF754FD054600BF3068800753
:100BB0007FF51DAFFFF74CFD401B02284FF00300EF
:100BC000F4D9DEE720F001003067306F002920F013
:100BD000040030677AD0FFF73BFD054641F28837C5
:100BE000306F800700F18480FFF732FD401BB84270
:100BF000F6D9032002B0BDE8F08100BF20F48030B8
:100C000030603068002920F4802030607AD0FFF70F
:100C10001FFD0546306880033FF5CAAEFFF718FD9B
:100C2000401B6428F6D9032002B0BDE8F08100BF64
:100C30007068E16900F480028A4221D1216A00F0E3
:100C40003F028A421CD147F6C071626A0140B1EB93
:100C5000821F15D1A16A4FF6FF73C903994300F4AF
:100C60004032A1F580318A420AD1E16A00F0706019
:100C7000B0EB016F04D1002002B0BDE8F08100BFED
:100C8000012002B0BDE8F08104F11C052FCD08431E
:100C900040EA8210D9034FF6FF729143A1F58031EB
:100CA00040EA05600843706001203866FFF7D0FC19
:100CB000044600BF30688001DDD4FFF7C9FC001B8B
:100CC00002284FF00300F5D95BE700BFFFF7C0FC37
:100CD000054641F2883700BF306F800708D5FFF71F
:100CE000B7FC401BB8424FF00300F5D949E700BFFD
:100CF000B8F1000F3FF581AE306C20F080503064C9
:100D00007BE600BFFFF7A4FC054600BF3068800308
:100D10007FF54EAEFFF79CFC401B64284FF00300AC
:100D2000F4D92EE7411E0020B0EB116F1CBF01204B
:100D300070474EF21002CEF2000251604EF623517F
:100D4000CEF20001F0230B70072190601160704714
:100D500090F83C20012A04BF02207047B0B501F191
:100D600008053CCDD1E900CE23F47C5322F4705227
:100D70001A432EF4F0431A432CF4E0431A4324F4AC
:100D8000C0431A432A43C96922F4804203681143CD
:100D90005964002180F83C100020B0BD90F83C2040
:100DA000012A4FF0020241D010B580F83D200268C0
:100DB000D2F804E0D2F808C00C682EF07003234388
:100DC00040F6FF34C4F20004A242536010DCB2F1DA
:100DD000804F1ED040F20043C4F200039A4218D064
:100DE00040F60003C4F200039A4212D016E000BF9E
:100DF00040F60043C4F200039A420AD044F20003D2
:100E0000C4F201039A4204D00023C4F201039A42BF
:100E100004D149682CF0800319439160012100221C
:100E200080F83D1080F83C20BDE810401046704727
:100E3000002804BF0120704710B5044690F83D001B
:100E400028B9002084F83C00204600F01FF802205A
:100E500084F83D002068211D00F0ECFA012084F8A0
:100E6000460084F83E0084F83F0084F8400084F88F
:100E7000410084F8420084F8430084F8440084F878
:100E8000450084F83D00002010BD000000680021EE
:100E9000C4F20101884218BF704781B00020009061
:100EA00043F64400C4F20200016841F00101016010
:100EB000006800F001000090009801B07047000049
:100EC00090F83C20012A4FF002026CD080B580F8E7
:100ED0003D20D0F800C04FF67772DCF8083023EAE6
:100EE0000202CCF808200B684F2B29DC1F2B45DDB4
:100EF000202B46D0302B44D0402B40F0AF80D1F88F
:100F000004E0C968DCF82030DCF8202022F001027F
:100F1000CCF82020DCF8182022F0F00242EA01117F
:100F200023F00A0242EA0E02CCF81810CCF8202076
:100F3000DCF8081041F0470121F0300128E000BF43
:100F40006F2B33DDB3F5005F74D0B3F5805F21D034
:100F5000702B40F08380D1E901E3C968DCF80820F8
:100F600043EA0E0322F47F4243EA01211143CCF805
:100F70000810DCF8081041F0770109E00BB1102BE4
:100F80006CD1DCF8081021F07001194341F0070121
:100F9000CCF808100022012180F83D10002180F8D3
:100FA0003C10BDE880401046704700BF502B21D058
:100FB000602B53D1D1F804E0C968DCF82030DCF8AC
:100FC000202022F01002CCF82020DCF8182022F497
:100FD000704242EA013123F0A00242EA0E12CCF83C
:100FE0001810CCF82020DCF8081041F0670121F03F
:100FF0001001CDE7D1F804E0C968DCF82030DCF856
:10100000202022F00102CCF82020DCF8182022F069
:10101000F00242EA011123F00A0242EA0E02CCF881
:101020001810CCF82020DCF8081041F0570121F00E
:101030002001ADE7D1E901E3C968DCF8082043EA03
:101040000E0322F47F4243EA01211143CCF8081039
:10105000DCF8081041F480419AE700BF01229AE7CA
:1010600080B586B000210068C4F2010100228842E8
:101070000592CDE903220292019201D006B080BD13
:1010800043F630000092C4F20200036843F001030B
:101090000360006800F00100009000984FF4807039
:1010A00001900220CDE902020120059001F5803077
:1010B00001A90492FFF7E8F906B080BD90F83C3032
:1010C000012B04BF022070474FEAB202032A00F24C
:1010D000ED802DE9F043DFE802F003A3397300BF90
:1010E000036800261D6A1A6AC4F2010622F0010292
:1010F0001A621A465C6852F818CFB3428E68D1F86B
:1011000000E025F0020545EA06050CD1CE68D1E9DC
:10111000057824F4407425F00C0526F004063C43C1
:10112000354344EA08042CF0730747EA0E075C6075
:101130009F614F6809695F631D629F6947F00807F7
:101140009F619F6927F004079F61A4E00368002660
:101150001D6A1A6AC4F2010622F480721A621A46E3
:10116000D3F804C052F81CEFB3428E680C6825F423
:10117000007545EA06250FD1CE68D1E905983602FB
:1011800040F2FF4725F44065BE4335432CF44057F9
:1011900048EA090647EA061C2EF073072743C3F8FE
:1011A00004C0DF614F680969DF631D62DF6947F0D2
:1011B0000807DF61DF6927F00407DF616BE000BF2C
:1011C00003680027D3F820C01A6AC4F2010722F48A
:1011D00080521A621A465C6852F81C5FD1F800E02F
:1011E0008E68BB4204D14F6924F4804444EA8714DA
:1011F0002CF4005747EA063725F4E64646EA0E2661
:101200005C60DE614E6809691E641F62DF6947F435
:101210000067DF61DF6927F48067DF613AE000BFC4
:10122000036800261D6A1A6AC4F2010622F0100241
:101230001A621A46D3F804C052F8184FB3428E68A7
:10124000D1F800E025F0200545EA06150FD1CE685B
:10125000D1E905986FF0400725F0C00507EA0616AA
:1012600035432CF4406748EA090647EA860C24F423
:10127000E64444EA0E27C3F804C09F614F68096939
:101280009F631D629F6947F400679F619F6927F410
:1012900080679F6109021368194311600021BDE84E
:1012A000F043002280F83C200846704701210022CC
:1012B00080F83C2008467047002804BF0120704792
:1012C00010B5044690F83D0028B9002084F83C0091
:1012D000204600F01FF8022084F83D002068211D00
:1012E00000F0A8F8012084F8460084F83E0084F855
:1012F0003F0084F8400084F8410084F8420084F8FC
:10130000430084F8440084F8450084F83D00002040
:1013100010BD000070470000C1B1042908D00829A1
:1013200014BF41224022825C012A05D016E000BF92
:101330003F22825C012A11D10222082910D00429FF
:1013400014BF80F8412080F83F200BE090F83E2049
:10135000012A03D1022280F83E2003E001207047D9
:1013600080F84020006801F01F010122036A8A40D2
:1013700023EA02010162036A4421C4F201011A4313
:10138000A1F144039842026216D040F6FF31C4F244
:10139000000188421ADCB0F1804F28D040F20041B1
:1013A000C4F20001884222D040F60001C4F20001DC
:1013B00088421CD022E000BF0A6842F400420A6062
:1013C00040F6FF31C4F200018842E4DD40F60041FE
:1013D000C4F2000188420AD044F20001C4F20101C3
:1013E000884204D00021C4F20101884206D18168FC
:1013F00001F00701062904BF00207047016841F091
:101400000101016000207047FEE70000FEE70000D8
:10141000FEE700007047000070470000FFF71EB9AC
:101420004EF68850CEF20000016841F47001016070
:101430007047000010B540F2FF7E0368C4F2000E52
:1014400040F2000C7045C4F2010C1DDD40F60002B4
:10145000C4F20002904220D060451ED040F6004207
:10146000C4F20002904218D04FF6FF72C4F200029C
:1014700090421CDC704525DCB0F1804F3AD040F240
:101480000042C4F2000233E0B0F1804F05D040F2D8
:101490000042C4F200029042E6D14A6823F0700391
:1014A00013434FF6FF72C4F200029042E2DD44F2B1
:1014B000FF32C4F20102904210DC60451AD044F2BF
:1014C000000213E040F60002C4F20002904211D084
:1014D00040F60042C4F200020AE000BF44F60002F7
:1014E000C4F20102904205D044F20042C4F201026B
:1014F000904203D1CA6823F44073134323F080025F
:101500004B69D1F800E08C681A4360450260C46200
:10151000C0F828E002D10969CCF8301001214161FE
:101520000169C90708BF10BD016921F0010101610E
:1015300010BD0000FEE70000F0B581B040F20005EC
:10154000C2F2000540F200442988C4F20204204699
:1015500000220026FFF776F8298B2046FFF764F873
:1015600000285DD0A98B2046FFF75EF8002859D0EF
:10157000298C2046FFF758F8002857D0A98C204620
:10158000FFF752F8002855D029882046012201266D
:10159000FFF758F8A988204600220027FFF752F8E5
:1015A000298B2046FFF740F800285BD0A98B204606
:1015B000FFF73AF8002841D0298C2046FFF734F88D
:1015C00000283FD0A98C2046FFF72EF800283DD0F8
:1015D000A98820460122FFF735F8298920460022F4
:1015E0000027FFF72FF8298B2046FFF71DF8C0B31F
:1015F000A98B2046FFF718F860B3298C2046FFF727
:1016000013F848B3A98C2046FFF70EF840B3298998
:1016100020460122FFF716F8002001B0F0BD00BF00
:1016200000271FE0012700261CE000BF022700263C
:1016300018E000BF0327002614E000BF01260127A1
:1016400010E000BF022701260CE000BF032701269F
:1016500008E000BF012704E00226022702E000BFE5
:101660000327022607EB470028443044007B01B0E3
:10167000F0BD00002DE9F04182B0002643F63000B5
:101680000196C4F20200016840F2980441F00201A0
:101690000160006840F2004500F0020001900198EE
:1016A000C2F2000402204FF00108C4F20205C4E9AE
:1016B000000828462146C4E90266FEF7E5FE40F22E
:1016C0000007C2F2000738682146C4E9000828462E
:1016D000C4E90266FEF7D8FE398828460122FEF7E3
:1016E000B1FF78682146C4E900082846C4E90266CB
:1016F000FEF7CAFEB98828460122FEF7A3FFB868A4
:101700002146C4E900082846C4E90266FEF7BCFE8B
:10171000398928460122FEF795FFB869214684E8F9
:1017200041012846FEF7B0FEF869214684E84101F0
:101730002846FEF7A9FE386A214684E8410128467A
:10174000FEF7A2FE786A2146C4E900062846C4F8DE
:10175000088002B0BDE8F041FEF796BE9AB043F6AD
:10176000300640F20044C4F20206C4F20204FEF75E
:1017700083FF01AD28463021FEF70AFE00271197AE
:10178000CDE90F77CDE90D7716973069022240F049
:1017900080503061306900F080501690169846F6FF
:1017A00000401697CFF6FE70215862F38F3121501A
:1017B000205800F440401690169801200490102004
:1017C0000590284601920797FFF7D6F810B172B638
:1017D000FEE700BF0F20CDE90D070DA80021CDE9E0
:1017E0000F771197FEF7E0FF10B172B6FEE700BF6A
:1017F00000270597CDE90377CDE901770D9730688C
:101800004FF4E06140F0040030603068002200F0E6
:1018100004000D900D980D9730684FF4E06540F08E
:1018200080003060306800F080000D900D980D97BA
:10183000306840F002003060306800F002000D9027
:101840000D980D97306840F001003060306800F06E
:1018500001000D900D982046FEF7F4FE019501ADB4
:10186000012620462946CDE902670497FEF70CFEC3
:101870004FF47040CDE90107204629460396FEF754
:1018800003FEFFF7F7FE40F2AC00A4F58231C2F28E
:10189000000040F2CF721997CDE91777CDE91477A0
:1018A000079780E88600C0E90327C0E90577FFF7BE
:1018B000BFFA18B172B600BFFEE700BF4FF4805008
:1018C000169040F2AC00C2F2000016A9FFF7F8FA39
:1018D00010B172B6FEE700BF40F2AC00C2F20000E9
:1018E000FFF7EAFC10B172B6FEE700BF40F2AC00B1
:1018F000C2F2000014A9FFF751FA18B172B600BF86
:10190000FEE700BF60200D904FF47A700E9040F219
:10191000AC000025C2F200000DA90022CDE90F5550
:10192000CDE911551395FFF7C9FB18B172B600BF89
:10193000FEE700BF0595CDE90355CDE901550895B2
:1019400040F2AC054FF40050C2F20005069001A928
:101950002846FFF7FDF918B172B600BFFEE700BFD9
:101960002846FFF77DFB28460021FFF7D5FC0A2714
:101970000EE000BF142FA7F10A07B8BF5A2707EBE4
:10198000870029688000486320460221FEF752FE46
:10199000FFF7D2FD06463220FEF762FD322EE9D077
:1019A000502F07F10A07C8BF0A27E8E7F1EE100A2F
:1019B0004FF6FF71C0F2C03120EA010040F04070E4
:1019C000E1EE100A70470000000000000000010274
:1019D0000304060708090000F819000800000020A9
:1019E00038000000F8010008301A00083800002014
:1019F000C0060000180200080001000000020000FC
:101A0000000400003132333435363738392A302378
:101A100000100000002000000040000000800000D6
:101A200001000000100000000024F400000000008D
:040000050800019559
:00000001FF
